:020000040800F2
:1000000000500020690F0008670F0008650F000806
:10001000650F0008650F0008650F0008000000006C
:10002000000000000000000000000000670F000852
:10003000670F000800000000670F00087104000847
:10004000650F0008650F0008650F0008650F0008C0
:10005000650F0008650F0008650F0008650F0008B0
:10006000650F0008650F0008650F0008650F0008A0
:10007000650F0008650F0008650F0008650F000890
:10008000650F0008650F0008650F0008650F000880
:1000900099040008650F0008650F0008650F000847
:1000A000650F0008650F0008650F0008650F000860
:1000B000650F0008650F0008650F0008650F000850
:1000C000650F0008650F0008650F0008650F000840
:1000D000650F0008650F0008650F0008950200080D
:1000E000650F0008650F0008650F0008650F000820
:1000F000650F0008650F0008650F0008650F000810
:10010000650F0008650F0008650F0008650F0008FF
:10011000650F0008650F0008650F0008650F0008EF
:10012000650F0008650F0008650F0008650F0008DF
:10013000650F0008650F0008650F0008650F0008CF
:10014000650F0008650F0008650F0008650F0008BF
:1001500030B5C4684568631CB3FBF5F205FB123289
:100160008568AA420BD00268C3601155C468426812
:10017000B4FBF2F302FB1343C360084630BD4FF0FB
:10018000FF3030BDF8B506460F4615460024AC4298
:1001900006DA395D3046FFF7DBFF002802DA6442F9
:1001A0002046F8BD0134F2E782680346C06830B5E6
:1001B00082420CD0541C5D6818689C60805CB4FB63
:1001C000F5F205FB12429A6019B1087030BD4FF08C
:1001D000FF3030BD70B500244FF40065254B264A32
:1001E0005D601A609C60DC60244A254B272083E810
:1001F00024009C60DC6000F025FF224A224E136838
:10020000102143F0100313604FF0007000F0D6FC93
:1002100030464FF480630222032100F09EFC2B46FF
:10022000012205F140252146304600F096FC284683
:10023000164900F055FE2846082100F065FE2146CB
:10024000284600F06AFE2146284600F06CFE214652
:10025000284600F074FE28460C2100F06AFE0C4A85
:100260002846BDE87040136843F02003136000F097
:100270006CBE00BF1C0800202C0800201C000020C1
:100280000C000020040001400010014020A10700E4
:100290000C48004038B5184C23689B0613D5174806
:1002A00003689D060FD500F059FEC5B20A2D0AD08D
:1002B00029461348FFF74CFF0D2D04D1114A13783E
:1002C0000133DBB213702368190614D50B4D2B686C
:1002D0001A0610D500210C48FFF766FF431C04D115
:1002E000236823F08003236038BD81B22846BDE82F
:1002F000384000F02FBE38BD0C4800400048004098
:100300000C0000202C1000201C0800200A0902F11B
:100310003003392B88BF02F1370301F00F0103705E
:1003200001F13003392B88BF01F137034370704767
:1003300003463038C0B2092806D9A3F14102052A84
:1003400094BF373B573BD8B27047000007B5014612
:1003500001A8FFF7DBFF022201A90348FFF712FF04
:1003600003B05DF804FB00BF1C08002000B58BB093
:10037000082861D8DFE800F0051C2126313C414AFD
:1003800055000023B4220893079306924FF480028D
:1003900005924FF450220492039302930193009329
:1003A00001221946264800F011FA0BB05DF804FB53
:1003B00000235A2208930793E7E700232422089397
:1003C0000793E2E72422002306924FF48012089359
:1003D000059207934FF4E022DDE7002312220893F1
:1003E000079306924FF4801205924FF44022D2E711
:1003F0000023092208930793F3E7002309220893B7
:100400000692079305934FF4C022C4E7032200230A
:1004100006924FF480120893059207934FF430220E
:10042000B9E70222002306924FF480120893059246
:1004300007934FF46022AEE74FF0FF30B5E700BFFF
:1004400000640040F8B5002406462546074FB54233
:1004500001DB2046F8BD00213846FFF7A5FEC0B2FB
:10046000FFF766FF240104430135F0E70C0000208C
:10047000074B1A6801321A601A68B2F5FA7F06D182
:1004800000224FF4005103481A6000F0A6BB7047E9
:100490003010002000100140002210B58AB008ABD7
:1004A00004930DF11B0303930DF11A0302930DF155
:1004B0001903019306AB05920093114607AB2B4835
:1004C00000F0E6FA9DF819209DF81830002A38D07F
:1004D000002B14BF522172212548FFF739FE9DF8E9
:1004E0001830079893B3000EFFF730FF9DF81E00F9
:1004F000FFF72CFF9DF81D00FFF728FF9DF81C005B
:10050000FFF724FF9DF81B10194801F00F0141F07F
:100510003001FFF71DFE00239DF81B205C1CDBB2A1
:100520009A421AD80D211248FFF712FE00210F48F7
:1005300000F0A3FA0F4A136843F0800313600AB077
:1005400010BD002B14BF54217421C5E7C0F3022154
:1005500030310748FFF7FCFDD0E70AAA134413F82F
:10056000080CFFF7F3FE2346D6E700BF0064004007
:100570001C0800200C4800402DE9FF480024854B52
:10058000854E86481C70347000F028FC40F2023022
:1005900000F088FC40F2033000F084FC4FF441701E
:1005A00000F080FC4FF400517D4800F011FB4FF447
:1005B00080417B4800F00EFB4FF40041784800F08A
:1005C00009FB22464FF400530321754800F0C5FA99
:1005D00022464FF480430321714800F0BEFA2246C0
:1005E0004FF4004303216E4800F0B7FA4FF4407017
:1005F00000F058FC40F2923000F054FC4FF4407090
:1006000000F050FC40F2993000F04CFC654A214665
:100610001368654843F4804313604FF480730222EB
:1006200000F09BFA4FF480715F4800F0D1FA4FF46C
:100630000073022203215C4800F08FFA142000F0BE
:1006400001FD0121142000F00BFD584800F0B2F824
:100650000620FFF78BFE044630B14FF4005150489E
:1006600000F0B8FA00BFFDE70123024601460093FF
:10067000034600F08FF902214C4800F097F9FFF78C
:10068000A9FD204600F0C2FC42F2273000F0B6FC83
:1006900000F0C8FC00F0CEFCDFF810A1DFF810B1CC
:1006A0003378002BFCD0504600F050FA0546002865
:1006B000F6D000215846FFF777FDC0B272284BD024
:1006C00008DC52283DD0542813D00024A0462746E9
:1006D000A14619E073284BD07428F6D10320FFF708
:1006E000B1FE80460120FFF7ADFE2C46C7B20025C3
:1006F00008E00820FFF7A6FE80460120FFF7A2FED3
:100700002C46C7B24FF00009002304A9DAB2BA425E
:1007100035D300215846FFF747FD0D28F9D044B1E5
:1007200004AB019300974B462A464146504600F0E1
:1007300041F93378002BB3D03378013BDBB233700F
:10074000AEE70820FFF77EFE80460120FFF77AFE25
:100750002C46C7B2A946D7E70320FFF773FE8046B1
:100760000120FFF76FFE2C46A946C7B20025CBE754
:100770000120FFF767FEC0B2FFF7F8FDA5E70220F2
:1007800003910293FFF75EFE029B0399C854013365
:10079000BCE700BF341000202C100020041100081A
:1007A0000010014004000140000C014000640040C2
:1007B0000C000020044B98420CBF40F2192040F27C
:1007C0001A2000F07CBB00BF006400402DE9F3411B
:1007D00004689DF820C024F00204046004689DF8B9
:1007E00024E044F0010404604FF6FF749DF8287083
:1007F0009DF83C509DF840600194019C013C01949F
:1008000014B14468E407F8D5D0F80480041D18F04A
:10081000010F71D04FF00008C0F81C80002950D0A3
:10082000016841F080010160002A4ED0026842F068
:1008300040020260002B4CD0036843F020030360A9
:100840000368BCF1000F48D043F010030360036855
:10085000BEF1000F44D043F0080303600368002F8B
:1008600041D043F004030360C369002E3ED043F03F
:100870000043C361C369002D3BD043F08043C36193
:100880000E9B0D99013BC3F309030B430C99C269FD
:100890000B430B990B431343C361036823F001031C
:1008A00003604FF6FF730193019B013B019313B16A
:1008B0002368DB07F8D4406800F0010002B0BDE80F
:1008C000F081016821F08001ADE7026822F040026A
:1008D000AFE7036823F02003B1E723F01003B5E787
:1008E00023F00803B9E723F00403BCE723F0004337
:1008F000BFE723F08043C2E70120DFE7F0B5012422
:100900001F4E844035689DF81C7045F00105356028
:10091000E6431C4DD5F800E00EEA060EC5F800E0EF
:10092000DFF86CE009B3DEF800102143CEF80010C8
:100930001549F2B10A68224300F1006000F6C84090
:100940000A60C0000360069A059B43600F4B9AB192
:100950001A6822431A6017B12B681C432C60084A9E
:10096000136823F001031360F0BDDEF8001031407E
:10097000DCE70A683240DFE71A6816401E60EAE7E3
:10098000006600401C66004004660040146600409B
:100990000C6600401FB59DF818408DE81C000B4602
:1009A00000220121FFF7AAFF04B010BD43691943DB
:1009B00041617047F0B5044680689DF814E040013D
:1009C000069D4BD4A06800014FD4A068C00050D44D
:1009D0004FF0FF30F0BDC90041F0040144F80C10A5
:1009E0002BB154F80C2042F0020244F80C2004EB26
:1009F0000C035A6822F00F025A6059680EF00F0279
:100A00000A430EF1FF3E5A60BEF1070F1FD8DFE820
:100A10000EF01B1815110E0B08040027EA7962F37B
:100A20001F67AA7962F317476A7962F30F272A7959
:100A300062F307070026EA7862F31F66AA7862F37A
:100A400017466A7862F30F262A7862F307069E60DB
:100A5000DF601A6842F001021A60F0BD4FF4C07CFA
:100A60000020002AB7D14905B8E74FF4C87C01201F
:100A7000F7E74FF4D07C0220F3E721B9C36843F0D5
:100A80002003C3607047036943F02003036170478C
:100A90002DE9F3474FF4D8754FF4E0768DE8600008
:100AA00002AD05EB810555F8085CDDF828A0475933
:100AB000DDF82C9017F0040715BF01278AF80070A5
:100AC0008AF80070475916BF47597F0DFF081F600D
:100AD0004359461913F0020318BF012389F8003067
:100AE0007368DDF830801B0A88F800307368DDF821
:100AF00034C0DDF83CE003F00F030E9C8CF80030AE
:100B0000BEF1000F03D073681B0CAEF80030B5685F
:100B1000F368C5F3072625706670C5F30746C5F36D
:100B20000765E570C3F3072523716571C3F30745B6
:100B3000C3F30763A670A571E37122B102B0BDE8EB
:100B4000F047FFF79ABF02B0BDE8F087836813F063
:100B5000E05F14BF0120002070472DE9F0434FF6FD
:100B6000E07700264FF00F0896469C4602684368DF
:100B70004CFA06F4E40718D5072EB4B28BBF3C46F6
:100B800091469946A40098BFA4B208FA04F529EA50
:100B90000509A51C0EFA05F501FA04F42C4344EAF4
:100BA0000904082E2CBF2346224601360437102E96
:100BB000BFB2DDD102604360BDE8F083034A136831
:100BC00023F0E063194301431160704704000140C2
:100BD00001617047090401617047C36803EA0102BB
:100BE00021EA030141EA024101617047024A1368A8
:100BF00043F080731360704700100240062822D82B
:100C0000DFE800F004090E13181D1F000F4B1868D1
:100C1000C0F3406070470D4B1868C0F3C060704768
:100C20000A4B1868C0F340707047084B1868C0F34F
:100C300040407047054B1868C0F340007047044BB4
:100C4000F9E7044BF7E70020704700BF00100240AF
:100C50002010024024100240024608B51046FFF75B
:100C6000CDFF0028FAD008BD06280CD8DFE800F038
:100C700004060C11161B1D00FFF7B8BF0C4A1368C1
:100C800043F0806313607047094A136843F0805350
:100C9000F8E7074A136843F48033F3E7044A13681C
:100CA00043F00103EEE7034AF9E7034AF7E700BF21
:100CB000001002402010024024100240034A136832
:100CC00023F0030318431060704700BF0410024074
:100CD000034A136823F4701343EA8040106070479E
:100CE00004100240034A136823F4706343EA0020AF
:100CF000106070472C100240034A136823F47043BD
:100D000043EA0030106070472C100240034A136819
:100D100023F4803343EA004010607047041002401F
:100D2000034A136823F4003343EA404010607047DD
:100D300004100240034A136823F4404343EA80301E
:100D40001060704704100240034A136823F4605394
:100D500043EAC0201060704704100240034A136841
:100D600023F4E06343EA002010607047041002405F
:100D7000034A136823F0F00343EA00101060704741
:100D800004100240044B1A6818B142F480021A6041
:100D9000704722F48002FAE704100240034A136805
:100DA00023F00F0318431060704700BF2C1002405F
:100DB000034A136823F0F00343EA00101060704701
:100DC0002C100240044B1A6818B142F480321A60A9
:100DD000704722F48032FAE72C10024010B54378B5
:100DE0000446012B50D10320FFF73EFF0320FFF7FD
:100DF00033FFA078FFF7BCFFE078FFF7AFFF207963
:100E0000FFF7A2FF6079FFF795FF207BFFF7BAFF9E
:100E1000A07900F035F92078FFF75AFF6078FFF7E6
:100E200075FFE079012834D9FFF7B8FF207A08B1BF
:100E3000FFF7C8FF607A08B1FFF7BAFFA07A38B1B0
:100E4000FFF750FF0120FFF70FFF0120FFF704FF1E
:100E5000E07A38B1FFF750FF0220FFF705FF0220CC
:100E6000FFF7FAFEFFF7C2FE0020FFF7F5FE0220B3
:100E7000FFF724FF2269084B1A606269074B1A606A
:100E8000A269074B1A6010BD0420FFF7EDFE042095
:100E9000ADE7FFF745FFC9E7000000200400002090
:100EA00008000020430900F01F02012003F18043E5
:100EB00003F504331968904008431860704700F048
:100EC0001F024309012003F1804303F5043319682D
:100ED0009040014319601A6822EA000018607047C8
:100EE000064A074B90421B6804BF064B1B6803EB86
:100EF0005103B3FBF1F18160704700BF003801403E
:100F00000400002008000020C36808290CBF23F457
:100F1000805343F48053C3607047036923F4405304
:100F2000194301617047C36823F4C0631943C1606A
:100F30007047C36823F00C031943C16070474369CD
:100F400023F44073194341617047C36843F400536D
:100F5000C3607047C1F30801416070474068C0F347
:100F600008007047FEE77047002238B51849194C51
:100F700019485318834217D30021184A934217D3B4
:100F8000174A184C1368184D43F400731360AC42B1
:100F900011D3164C164DAC4211D3FFF7EDFA154C98
:100FA000154DAC420FD338BD135953500432E0E70E
:100FB00019600433E2E754F8043B9847E7E754F834
:100FC000043B9847E7E754F8043B9847E9E700BF3C
:100FD00000000020201100080C0000203810002024
:100FE00014ED00E020110008201100082011000875
:100FF000201100082011000820110008024B20F0E9
:101000007F401860704700BF14E000E0044A00F021
:101010000400136823F0040303431360704700BF08
:1010200010E000E0024A136843F0020313607047C7
:1010300010E000E0024A136843F0010313607047B8
:1010400010E000E0012243099B0003F1604300F03F
:101050001F0003F5614302FA00F0186070470000BA
:10106000432893BF00F16040044B00F00F0000F5EF
:1010700064408CBFC1540170704700BF14ED00E0A4
:10108000034A136823F0070318431060704700BF3A
:1010900000200240040100040002020000000000E1
:1010A0000000000000A24A040051250200A24A04E8
:1010B000070100040002020100000000000000001F
:1010C00000A24A040051250200A24A0407010004BC
:1010D00000020204010406000000000000A24A040D
:1010E0000051250200A24A04010100000000000096
:1010F000000000000000000000366E0100366E01A6
:1011000000366E0107010004000302000000000029
:101110000000000000A24A040051250200A24A0477
:0C11200000127A0000127A0000127A001F
:0400000508000F6977
:00000001FF
